:020000040800F2
:1000000020120020490100083904000841030008BB
:1000100035040008FB0100088F0C000800000000F8
:10002000000000000000000000000000E9080008D7
:10003000FF01000800000000F1070008FD090008AA
:100040006301000863010008630100086301000800
:1000500063010008630100086301000863010008F0
:1000600063010008630100086301000863010008E0
:1000700063010008630100086301000863010008D0
:1000800063010008630100086301000863010008C0
:1000900063010008630100086301000863010008B0
:1000A00063010008630100086301000863010008A0
:1000B0006301000863010008630100086301000890
:1000C0006301000863010008630100086301000880
:1000D00063010008610A0008630100086301000869
:1000E0006301000863010008630100086301000860
:1000F0006301000863010008630100086301000850
:10010000630100086301000863010008630100083F
:10011000630100086301000863010008630100082F
:10012000630100086301000863010008630100081F
:10013000DFF810D000F024F800480047F50D000863
:10014000AFF3008020120020064880470648004791
:10015000FEE7FEE7FEE7FEE7FEE7FEE7FEE7FEE777
:10016000FEE7FEE7010A000831010008CAB2401E9E
:1001700010F8011F8A4202D00029F9D100207047EF
:10018000064C074D06E0E06840F0010394E80700E4
:1001900098471034AC42F6D3FFF7CEFFD00F0008DB
:1001A000F00F000870B58C1810F8015B15F007030C
:1001B00001D110F8013B2A1106D110F8012B03E000
:1001C00010F8016B01F8016B5B1EF9D12B0705D408
:1001D0000023521E0DD401F8013BFAE710F8013B51
:1001E000CB1A921C03E013F8015B01F8015B521E6D
:1001F000F9D5A142D8D3002070BD00BFFEE77047FB
:10020000044900E0521C11F8013B002BFAD15008C0
:1002100070470000C80800202DE9F0410246002583
:100220000026002000230024002791F803C00CF0D2
:100230000F0591F803C00CF0100CBCF1000F03D0B7
:1002400091F802C04CEA050591F800C0BCF1000F1E
:1002500031D0146800202BE04FF0010C0CFA00F3B1
:10026000B1F800C00CEA03069E4220D183004FF093
:100270000F0C0CFA03F7BC4305FA03FC4CEA040428
:1002800091F803C0BCF1280F06D14FF0010C0CFA15
:1002900000FCC2F814C00AE091F803C0BCF1480F9A
:1002A00005D14FF0010C0CFA00FCC2F810C0401C44
:1002B0000828D1D31460B1F800C0BCF1FF0F34DDC1
:1002C000546800202EE000F1080C4FF0010808FAF5
:1002D0000CF3B1F800C00CEA03069E4221D1830062
:1002E0004FF00F0C0CFA03F7BC4305FA03FC4CEA81
:1002F000040491F803C0BCF1280F05D100F1080CEB
:1003000008FA0CF8C2F8148091F803C0BCF1480F49
:1003100007D100F1080C4FF0010808FA0CF8C2F8F8
:100320001080401C0828CED35460BDE8F0810246FE
:10033000002093680B400BB1012000E000207047C3
:1003400000BFFEE7002001E0411CC8B21428FBDB1F
:100350007047000008B50121042000F04BFA4FF46B
:100360000060ADF8000003208DF8020014208DF825
:10037000030069460648FFF74FFF4FF48050ADF881
:10038000000069460248FFF747FF00F01DF808BD6E
:100390000008014010B50120094908600949C1F869
:1003A000AC01FFF7CFFF002005490860FFF7CAFF47
:1003B00000200449C1F8AC01FFF7C4FF10BD0000E4
:1003C000B00121420000214210B50020054908601B
:1003D00001200549C1F8AC01FFF7B4FF0120014934
:1003E000086010BDB00121420000214210B501207B
:1003F0000D490860FFF7A6FF01200C49C1F8AC01C8
:10040000FFF7A0FF4FF480510948FFF790FF08B1B4
:10041000012400E0002400200349091F0860FFF7C1
:1004200091FF204610BD0000B00121420000214292
:100430000008014000BFFEE77047000070B50021D2
:1004400000230F22C47804B3154C246804F4E0643C
:10045000C4F5E064210AC1F10403CA40447804FAF7
:1004600003F184781440214309010E4C0678A1550C
:10047000047804F01F050124AC4005786D11AD002F
:1004800005F1E025C5F8004109E0047804F01F05F6
:100490000124AC40044D0678761145F8264070BD25
:1004A0000CED00E000E400E080E100E002490143DF
:1004B000024A1160704700000000FA050CED00E0F0
:1004C00010B5002000F001F810BD70B506460024FC
:1004D00015E004F1B001C8B200F008FC002000F003
:1004E00005FC102000F002FC002504E0304600F07E
:1004F00013FC681CC5B2822DF8DB601CC4B2082C4A
:10050000E7DB70BD10B5FFF725FFAE2000F0EEFB76
:10051000002000F0EBFB102000F0E8FB402000F092
:10052000E5FBB02000F0E2FB812000F0DFFBFF20C4
:1005300000F0DCFBA12000F0D9FBA62000F0D6FBE8
:10054000A82000F0D3FB3F2000F0D0FBC82000F033
:10055000CDFBD32000F0CAFB002000F0C7FBD52064
:1005600000F0C4FB802000F0C1FBD82000F0BEFBEF
:10057000052000F0BBFBD92000F0B8FBF12000F013
:10058000B5FBDA2000F0B2FB122000F0AFFBDB205D
:1005900000F0ACFB302000F0A9FB8D2000F0A6FBA2
:1005A000142000F0A3FBAF2000F0A0FB10BD70B53D
:1005B00004460D4605F1B001C8B200F097FB1021CA
:1005C00041EA141000F092FB04F00F0141F0010029
:1005D00000F08CFB70BD00002DE9F047074688460F
:1005E0001646002580E03078A02843DD00253AE05B
:1005F000702F04DD002708F1020000F0FF083078BA
:100600003C4911F8151088422CD17078012101EB7A
:100610004501384A515C884224D141463846FFF7AB
:10062000C6FF002406E004EB4511334A505C00F09D
:1006300073FB641C102CF6D308F10100C1B23846DC
:10064000FFF7B5FF002407E004EB451110312A4AFB
:10065000505C00F061FB641C102CF5D307F1100016
:10066000C7B204E06D1C254800688542C0D300BFB6
:10067000B61C39E07A2F04DD002708F1020000F0F3
:10068000FF0831781E48FFF771FD8146B9F1000F70
:1006900029D041463846FFF78AFF002409E099F83F
:1006A0000010203904EB0111164A505C00F034FBB5
:1006B000641C082CF3D308F10100C1B23846FFF7DF
:1006C00076FF00240AE099F80010203904EB0111AC
:1006D00008310C4A505C00F01FFB641C082CF2D35C
:1006E00007F10800C7B2761C307800287FF47BAF92
:1006F000BDE8F087C808002028060020540D00201F
:10070000F3080020380000202DE9F04107460E468E
:10071000904600250024A8F12000C5B2812F02DDFB
:100720000027B01CC6B231463846FFF740FF002410
:1007300007E004EB05110E4A505C00F0EDFA601C76
:10074000C4B2082CF5DB701CC1B23846FFF72FFF8E
:10075000002408E004EB05110831054A505C00F064
:10076000DBFA601CC4B2082CF4DBBDE8F0810000A9
:10077000380000202DE9F0470546894690461E4680
:10078000DDF820A000242FE0301B401EC1B20A205B
:1007900000F0C2FBB8FBF0F00A21B0FBF1F201FB64
:1007A0001207A7B9BAF1000F08D0082101FB0451C4
:1007B000C8B230224946FFF7A7FF07E0082101FB36
:1007C0000451C8B220224946FFF79EFF0AE007F114
:1007D0003001CAB2082101FB0451C8B24946FFF7F3
:1007E00093FF00BF601CC4B2B442CDDBBDE8F0870C
:1007F0007047000029B1064A92690243044B9A618E
:1008000004E0034A92698243014B9A6170470000F9
:100810000010024030B500210022002400232D4D9D
:100820006D6805F00C0121B1042905D0082923D1F8
:1008300005E0294D056022E0274D05601FE0254DAC
:100840006D6805F47012234D6D6805F4803402253F
:1008500005EB92421CB9214D554305600BE01D4D3F
:100860006D6805F400351DB11C4D5543056002E06F
:10087000194D5543056002E0174D056000BF00BFEC
:10088000144D6D6805F0F0010909154D6B5C0568A4
:10089000DD4045600F4D6D6805F4E061090A104DBB
:1008A0006B5C4568DD4085600A4D6D6805F46051FC
:1008B000C90A0B4D6B5C4568DD40C560054D6D6830
:1008C00005F44041890B074D6B5CC568B5FBF3F53A
:1008D000056130BD0010024000127A0000093D00A1
:1008E0002200002032000020704710B500F002F80E
:1008F00010BD00000CB50020019000903348006846
:1009000040F480303149086000BF3048006800F48E
:10091000003000900198401C0190009818B901988F
:10092000B0F5A06FF1D12948006800F4003010B193
:100930000120009001E0002000900098012843D1A0
:100940002348006840F0100021490860084600680C
:1009500020F0030008600846006840F002000860CC
:100960001A48406819494860084640684860084687
:10097000406840F4806048600846406820F47C107D
:1009800048600846406840F4E8104860084600683F
:1009900040F08070086000BF0C48006800F00070F4
:1009A0000028F9D00948406820F003000749486052
:1009B0000846406840F00200486000BF03484068B5
:1009C00000F00C000828F9D10CBD00000010024016
:1009D00000200240042808D14FF0E021096941F0CD
:1009E00004014FF0E022116107E04FF0E0210969B6
:1009F00021F004014FF0E0221161704770470000C0
:100A000010B51348006840F001001149086008461D
:100A10004068104908400E494860084600680E4981
:100A200008400B4908600846006820F480200860F0
:100A30000846406820F4FE0048604FF41F008860BC
:100A4000FFF753FF4FF000600449086010BD00003D
:100A5000001002400000FFF8FFFFF6FE08ED00E086
:100A600010B540F22551174800F050F848B315482A
:100A700000F008F9C4B21448008800F4004000BB3C
:100A8000FE2C05D101201149088000201049088062
:100A90000E480088A8B10F480D49098844540C48F5
:100AA0000088401C0A49088008460088082808DD9C
:100AB0000020064908800448008840F400400249AC
:100AC000088010BD003801401C00002020000020DC
:100AD0001E000020580D002000BF0549098801F0C4
:100AE00040010029F9D00249091D08807047000023
:100AF0000038014021B1828942F40052828104E031
:100B000082894DF6FF731A408281704770B50246A4
:100B1000002400230025002040F66A16B14200D1CF
:100B200000BFC1F3421501F01F03012606FA03F3CB
:100B3000012D02D19689334006E0022D02D1168A9A
:100B4000334001E0968A33400C12012606FA04F481
:100B50001688344013B10CB1012000E0002070BDB4
:100B6000F0B50346002400260025002040F66A1751
:100B7000B94200D100BF1846C1F3421401F01F066C
:100B8000012707FA06F5012C01D10C3004E0022CF4
:100B900001D1103000E014301AB107682F4307600C
:100BA00002E00768AF430760F0BD00002DE9F047A1
:100BB00086B005460E460024A24600BFA146002787
:100BC000B08900B100BF2F462C8A4CF6FF7004405C
:100BD000F08804432C82AC894EF6F3100440B088B0
:100BE00031890843718908430443AC81AC8A4FF6CC
:100BF000FF400440B0890443AC8201A8FFF70AFE1D
:100C00001F48874202D1DDF810A001E0DDF80CA0FA
:100C1000A88900F4004040B10AEBCA0000EB0A10BA
:100C200031684900B0FBF1F807E00AEBCA0000EBBD
:100C30000A1031688900B0FBF1F86420B8FBF0F0CD
:100C400004012009642101FB1089A88900F40040F7
:100C500040B1322000EBC900B0FBF1F000F007001A
:100C6000044308E0322000EB09106421B0FBF1F0EE
:100C700000F00F0004432C8106B0BDE8F0870000AF
:100C80000038014001468888C0F30800704700BF63
:100C9000FEE7000070B50446002520E004F0800067
:100CA00018B101200F49086002E000200D490860DA
:100CB000FFF748FB01200B49091F0860FFF742FBC3
:100CC00000200949C1F8AC01072D02D101200549D6
:100CD00008606006040EFFF735FB681CC5B2082DDE
:100CE000DCDB70BDB00121420000214210B504469A
:100CF000FFF750FB7820FFF7CDFFFFF777FB0020D1
:100D0000FFF7C8FFFFF772FB2046FFF7C3FFFFF7AF
:100D10006DFBFFF759FB10BD10B50446FFF73AFB1A
:100D20007820FFF7B7FFFFF761FB4020FFF7B2FF26
:100D3000FFF75CFB2046FFF7ADFFFFF757FBFFF720
:100D400043FB10BD02E008C8121F08C1002AFAD1F7
:100D500070477047002001E001C1121F002AFBD13B
:100D60007047000010B56FF00400FFF733FE0A482B
:100D700000680A49B0FBF1F009490870084600789C
:100D800000EB4001C1EBC0104FF6FF7101EAC0005B
:100D90000449088010BD00000000002000127A0005
:100DA00014000020160000200146114A12884A4310
:100DB0004FF0E0235A6100229A611A46126942F00C
:100DC00001021A6100BF4FF0E022106900F0010239
:100DD0001AB100F48032002AF5D04FF0E0221269F7
:100DE00022F001024FF0E0231A6100229A6170475D
:100DF0001600002008B5FFF703FA304908604FF4E9
:100E0000A060FFF753FBFFF7ADFF3220FFF7CCFFE9
:100E10004FF4165000F08CF8FFF774FBFFF750FB0F
:100E200027A200210846FFF7D7FB2AA202210020B3
:100E3000FFF7D2FB2CA204210020FFF7CDFB2FA24D
:100E400006210020FFF7C8FBFA20FFF745FEC5206A
:100E5000FFF742FEBF20FFF73FFE3220FFF7A4FF5F
:100E60002BE02B48008800F40040D0B12948857859
:100E7000C0780A2190FBF1F0C4B200BF0120022328
:100E80002A46062100905020FFF774FC01200346FB
:100E90002246062100906820FFF76CFC00201C49C8
:100EA0000880C820FFF780FFFA20FFF715FECA2050
:100EB000FFF712FEC420FFF70FFED2E7540D00200B
:100EC0002020C2B9D0A1B0E0B9A4D7F7CAD220205F
:100ED00000000000204C553930363134BAECCDE2F8
:100EE000B2E2CEC220000000B5B1C7B03A20CCE5D6
:100EF000CEC2C4A3CABD202000000000B5B1C7B057
:100F0000CEC2B6C83A2020202E20A1E60000000064
:100F10001C000020580D002010B50246012000E002
:100F200050430B1EA1F10104E1B2F9D110BD000044
:100F300010B586B00446012144F20400FFF75AFCC4
:100F40004FF40070ADF8140003208DF8160018203F
:100F50008DF8170005A91C48FFF75EF94FF4806073
:100F6000ADF8140004208DF8170005A91648FFF706
:100F700053F925208DF8000003208DF801008DF82D
:100F8000020001208DF803006846FFF757FA01942C
:100F90000020ADF80800ADF80A00ADF80C00ADF87F
:100FA00010000C20ADF80E0001A90848FFF7FEFD67
:100FB000012240F225510548FFF7D2FD01210348E7
:100FC000FFF798FD06B010BD000801400038014051
:100FD000F00F000800000020580D0000A4010008D8
:100FE00044180008580D0020C8040000540D0008E3
:100FF0001184A24A04000912010203040607080929
:10100000291A691E05150204060872F852331C10CD
:101010000C0603912C40C07803112C043F040321DB
:10102000367088FC0830261820FF211E14F008F0C6
:1010300033E0184D211C031E11338870000C101E64
:101040002123241927211010160E45E0180402252B
:10105000071820403D020418E0692C2018070717E4
:101060004080F08040403F0202010F0102283AF028
:10107000CA1C01011F04912B80B066A9EB490191A4
:101080002A30A5592C146018043C6018061D1EE077
:1010900010080810721F0F102020100FF05310F8C6
:1010A0003620203F20203C700808C21E3028242211
:1010B00021441E3008888848082E1820202011CC92
:1010C0003BC0203227070424243F241AF820230899
:1010D000084B19212036E0108888184B0F11101E7C
:1010E000380808C8382021523F1A702E29608F1CFA
:1010F000222121221C90111D31222211901961CA36
:10110000C0C26A80C659081C402010501701020452
:101110000810204A4001114A04012119152A4032C1
:1011200019251B0402F21B7048D13AF0501A360FF1
:101130001EC030C828E87028080718272423140B7D
:101140006F2A387E280D203C23020227382008F819
:1011500088889F4B203FF01BC0303F1B0838301958
:101160001019781B08F80F194039201B100F103E7A
:101170008888E8081010AC23201810112A035E2973
:1011800040223829402C221E024019A41809F808D0
:10119000203F21010121252A085229812942414964
:1011A000112EC08080807F0E2FF888C0281808502C
:1011B0001C0126382F2940292F29801B203010128E
:1011C000F81AF81413203F190229204B30C0601A76
:1011D0002074123F4BE010B06B0F10B029D01AF002
:1011E000301980220179203F18242438504FC04CF8
:1011F000888870C0140C30204B7088C117382021AB
:1012000021221C3A189F4A188239A049D0112A1F5E
:1012100090121F240878881BC838151C07380E60E8
:10122000191A1AF8201114033C0714073C03481438
:10123000081868808068180820302C03032C3020A0
:101240000838C82F5950298F29102F2038262120DF
:1012500020681145FE020202257F4040401A0CE042
:10126000611C0106380B191D42FE191D527F1A041C
:10127000120211045A80011930D91D39162118089B
:1012800019242222223F20AB390F115F3F11202069
:10129000110E21311A0E104B2011104B88F8102A14
:1012A00010B359401A1F3F2B22130F16F08888885D
:1012B000181A20D029D1497A21176B9494949360FD
:1012C0003960190F4C203F21F35480989879305998
:1012D000121AC02719D1193039311F203F24022D8D
:1012E00030212A0812893069D7294B2903190BC9E3
:1012F0006079A019BF2B201FDD390F9C80FFA1E072
:10130000191229D03BA0FF0C3950194112208A0133
:10131000C01B3324012A190F3AE0413952290F39F1
:101320002349603C103F202C29053F010E30080660
:101330000170291038080F300C030C300F2C49A114
:101340004E312E0E31200C29621D818E70183059BD
:10135000D1215721302C22213055807C0202443F7C
:10136000404072FF39083C02027C8F5440403F4E9F
:1013700002010202042F611AFCB81DFC2526240874
:1013800013E404500F40300F01FF894949017F9158
:101390008989E55AE04B1B2040491C0804034C5343
:1013A000807F13010E168484FC84841AF821490A74
:1013B000100A10301F0888422118073620203F20CD
:1013C000201BF888012AFF0552F81B1F08012A7FFD
:1013D00010149F80F03B8082012FE2A2928A8682C5
:1013E000D839AC5960413A04014AFC0719854901D2
:1013F000195B390119FD1C60F807B5396613080837
:101400005A01F72AFF6622081F100C2424A464DF67
:101410001724A42424140C1D40404849011A7F04B9
:101420001D4B4840406C380C42445840407F40407F
:101430005048C67C7A44012949180D0808E8292E2D
:1014400028E80808C80C0B06295A1C0949899F4A34
:101450000FA52F2030AC632018A629A3211808223D
:1014600067221212124001195329601FC0301F1049
:1014700010F0372B2040DE2F814021120C03473122
:101480001908151060028C16FE02F202FE2AF814EA
:10149000100B04047E018047300F10272A47613962
:1014A00020112BFE920132FE29201E407E42427EF8
:1014B000021B427E60111EFC242424FCE129081238
:1014C00004280F40308F80844C55252525554C80AD
:1014D00080724174C03FC03D80402010802C030CBE
:1014E0001092200F403C10FF101020108F7808F849
:1014F00008F8280F020602FF010104422118468164
:10150000403F31180A60F807101010D0FFD00621B4
:101510001A01BA100C1008040B08FF080B0408107D
:10152000291A180B9014E4AFA4A4A4AFE404A01AE1
:1015300003C6180B894B2A1A0E1A2A4B8880202AB8
:1015400090012A10661B1116412D2060203F4A3958
:101550008012F82809060909E6F80C040201530470
:101560001E2E071F302040011A202F102BC2B9D089
:10157000A1B0E0B5E7D7D3B9A4D7F7CAD2B5B1C700
:10158000B0BAECCDE2B2E2CEC2B6C8C8CBCEEFCC98
:10159000E5C4A3CABDA1E60060252021222324259D
:1015A000262728292A2B2C2D2E2F30313233343563
:1015B000363738393A3B3C3D3E3F40414243444553
:1015C000464748494A4B4C4D4E4F50515253545543
:1015D000565758595A5B5C5D5E5F60616263646533
:1015E000666768696A6B6C6D6E6F70717273747523
:1015F000767778797A7B7C7D7E2C6C7E7A01000B05
:101600001774706060E0C0C0C080801B80801E4D79
:10161000E060607430022E6C193D2833E0E0F0F099
:10162000F8F8F8FCFCFCBEBEFEFED6DFDFFF7F7FD5
:101630007FBFFFF7F7FFBF7FFFFEFEEECEECFCFCA7
:10164000F8F9B9337367E6CECC9C18B0F0E0012806
:101650000DF030189C8CCEE6E77373B9F93C6EEE52
:10166000CEEEFEFE37180B7F7FFFDFDFD7F67EBEA4
:10167000BE1A195C2AF0340A10C0C25BFEFF0118C2
:101680000AD89FBFFF7D7DEDF3FF12181976373B17
:101690003F3F3BB9FBDFFFFF3DBEB77773F7FFFF6F
:1016A000FC7F7FF7FE552CFFF5F30F180B1F6D1F06
:1016B000FFFFF677F3F1FFAB2813FF73777FFCFF93
:1016C000FFF7737737BFBCFFFFDFFBF93F2C37769F
:1016D000EF4C6808E1FD7DFFBF9FD867F3FE7C1FDC
:1016E00001030F0F1F1F4E69011822FBFDBEDBDF38
:1016F0009F3BFBFBF71FFCF13FFFFC86B7D36DED73
:10170000BEFAFB6DBDF6FB7BBDDDFEFE5512F01C87
:10171000F408F94D1820FE7EDDBD7FFBF6BE6D7B23
:10172000DBF6F56DCBFF86FDFE1FF3FC1EE7F7FB36
:101730003B9FDFDBBE9479570008193F1F1F0F0F37
:1017400007032D03071F3FE01DFFFBF7EFC4581AE7
:10175000DCDFDFDFEE77F9FCDFFF6F6F66F3FBDDC9
:10176000CEE673B99DCEE7BBFD4F6A06D01817B918
:10177000F3C68C193367CE9DF9F367676D7FDFFC85
:10178000BD7FFFEDDF401BFFFF48290107277F3F9B
:101790001F0F03012C010103012AFB891AFC051804
:1017A00016EEE7E7E70FFEFCF9FFFEFDEE67F97EB8
:1017B000F7FFCFFFFF01771BC0FE081A3F63181128
:1017C000F76FFDF7EFDDFEFFB3FDFE8FD7E7E7E62E
:1017D000782BFEF13E39480A26017801103D030FAF
:1017E0001F7FBE1014F7F7E7F7FF8F83FF7F7FFBA4
:1017F000FBFBE7FFFEFF3F0C19171A0304211A3FFA
:10180000061AE718580BFF7FFF83AFDFFFE7F7F7F4
:10181000F20B360F0779C1580C010303070F0F1F96
:101820001F3F3F7F011A7E041C3F3F1F5E2D0107B3
:101830000F1F172A7E13290119171D1F0F0F07F4F9
:04184000012900007A
:0400000508000149A5
:00000001FF
